:020000040800F2
:10000000101F0024E102000833630008D55D0008DA
:100010003163000815070008557B00080000000048
:10002000000000000000000000000000D966000889
:10003000890C00080000000035630008DB6600083A
:10004000FB020008FB020008FB020008FB0200089C
:10005000FB020008FB020008FB020008FB0200088C
:10006000FB020008FB020008FB020008450800082C
:10007000FB020008FB020008FB020008FB0200086C
:10008000FB020008FB020008F9060008FB0200085A
:10009000FB020008FB020008FB020008FB0200084C
:1000A000FB020008FB020008FB020008FB0200083C
:1000B000FB020008FB020008FB020008FB0200082C
:1000C000FB020008FB020008FB020008FB0200081C
:1000D000FB020008317A0008697A0008497B0008B1
:1000E000FB020008FB02000800000000FB02000801
:1000F000FB020008FB020008FB020008FB020008EC
:10010000FB020008FB020008FB020008FB020008DB
:10011000FB020008FB020008FB020008FB020008CB
:10012000FB020008FB020008FB020008FB020008BB
:10013000FB020008FB020008FB020008FB020008AB
:1001400000000000000000000000000000000000AF
:10015000FB020008FB020008FB020008FB0200088B
:10016000FB020008FB020008FB020008FB0200087B
:10017000FB020008FB020008FB0200080000000070
:10018000FB020008FB020008FB020008FB0200085B
:10019000FB020008FB020008FB020008FB0200084B
:1001A000FB020008FB020008FB0200080000000040
:1001B000FB020008FB020008FB020008FB0200082B
:1001C000FB020008FB020008000000000000000025
:1001D0000000000000000000FB020008000000001A
:1001E000000000000000000000000000000000000F
:1001F0000000000000000000FB020008FB020008F5
:10020000FB020008FB02000800000000FB020008DF
:10021000FB020008FB020008FB020008FB020008CA
:10022000FB02000800000000FB02000800000000C4
:10023000FB020008FB02000800000000FB020008AF
:10024000FB020008FB020008FB020008FB0200089A
:10025000FB020008FB020008FB020008FB0200088A
:10026000FB020008FB020008FB020008FB0200087A
:10027000FB020008FB020008FB020008000000006F
:10028000FB020008FB020008FB020008FB0200085A
:1002900000000000FB020008FB0200080000000054
:1002A00000000000FB020008FB020008FB0200083F
:1002B000FB020008FB020008FB020008FB0200082A
:1002C000FB020008FB020008FB020008DFF80CD06C
:1002D00000F090F800480047557D0008101F0024EA
:1002E0000648804706480047FEE7FEE7FEE7FEE7D0
:1002F000FEE7FEE7FEE7FEE7FEE7FEE775670008BC
:10030000CD0200082DE9F05F0546002092469B468D
:1003100088460646814640241BE02846414647461B
:10032000224600F057F853465A46C01A914110D35E
:1003300011461846224600F03EF82D1A67EB0108D8
:100340004F4622460120002100F035F817EB000946
:100350004E41201EA4F10104DFDC484631462A4606
:100360004346BDE8F09FD2B201E000F8012B491EE0
:10037000FBD270470022F6E710B513460A46044642
:100380001946FFF7F0FF204610BD30B50B46014679
:1003900000202022012409E021FA02F59D4205D324
:1003A00003FA02F5491B04FA02F52844151EA2F1CE
:1003B0000102F1DC30BD202A04DB203A00FA02F110
:1003C000002070479140C2F1200320FA03F3194343
:1003D00090407047202A04DB203A21FA02F00021E5
:1003E000704721FA02F3D040C2F120029140084345
:1003F00019467047064C074D06E0E06840F00103DF
:1004000094E8070098471034AC42F6D3FFF762FF38
:10041000648000088480000810B5324904460068F2
:10042000884202D0304A904202D1D1F8080302E05B
:100430002E48D0F8080310F4403F10D004F0DEF846
:100440006168B1F5803F06D0B1F5003F03D0B1F54A
:10045000403F26D101E0090C17E0800821E000218F
:100460004FF4002003F0B0F961688A03920B18D1B1
:100470008A140C2A15D2DFE802F0140606060606D6
:10048000060B0D0F1113890C4900B0FBF1F008E0C9
:10049000000906E0400904E0800902E0C00900E02C
:1004A000000A13494008884204D82068816821F472
:1004B000407108E00F49884207D82068816821F41C
:1004C000407141F48071816010BD0B498842206801
:1004D000816804D821F4407141F40071F3E741F4DC
:1004E0004071F0E700200240002102400060025805
:1004F000105E5F0020BCBE0040787D012DE9F04118
:100500000027044600680D4605F06FFC064620688B
:1005100005F067FC30435DD020682F4EC16889012B
:1005200005D5617E012902D1217E01290BD0022D42
:100530001DD0206805F059FCB8B120688168C1F36E
:10054000400169B111E02549012502E08F4232D214
:100550007F1C0268D2435206F8D440210160E8E7CC
:100560008168314041F010018160012D11D0206877
:1005700005F037FC48B120688168C1F3400121B91A
:100580008168314041F020018160022D08D0032DA7
:1005900004D0042502F0FCFD064617E00C25F9E71F
:1005A0000825F7E702F0F4FD801B05280ED9206826
:1005B000806828420AD0206E40F010002066606EED
:1005C00040F0010060660120BDE8F081206880688D
:1005D0002842E7D10020F7E7C0FFFF7F00DC0C00D6
:1005E00070B50446006881688268C1F3400112F06A
:1005F000010F28D039BB816801F00D01012914D108
:100600008168124A1140891C8160216803200860BA
:1006100002F0BEFD054612E002F0BAFD401B0228C2
:100620000DD920688068C00709D0206E40F0100006
:100630002066606E40F001006066012070BD206899
:100640008068C007E8D1002070BD0000C0FFFF7FB8
:1006500070B504460068816811F0010F40D18168CF
:10066000204A11422DD18168D5432940491C81601F
:1006700002F08EFD1C49064620681C4B884201D0C2
:10068000984201D11A4A00E01A4A9268984202F050
:100690001F0200D0014681421DD0E2B120E08168F6
:1006A00011F0010F03D181682940491C816002F0DB
:1006B0006FFD801B02280ED920680068C043C00768
:1006C00009D0206E40F010002066606E40F00100FE
:1006D0006066012070BD20680168C943C907DED18A
:1006E000002070BD3F000080002002400021024039
:1006F0000023024000630258044810B500F034FEA5
:10070000BDE81040024800F02FBE00003800002471
:10071000A8000024FEE7000010B586B004461421AE
:100720006846FFF727FE022101204FF40062CDE961
:10073000020104486946CDE9002402F011FC06B02C
:1007400010BD0000001002582DE9F041124F0024A6
:100750004FF400666806050E3146384602F00EFD7D
:100760000028F9D01C2007F0D1FA3146384602F0B3
:1007700005FD10B145F0010501E025F00105314608
:10078000384602F0FBFC0028F9D1641C082CE1DBA0
:100790002846BDE8F08100000010025810B504465C
:1007A00000F01EF870B1FFF7CFFF2070FFF7CCFF0D
:1007B0006070FFF7C9FFA070FFF7C6FFE070FFF79A
:1007C000C3FF207120786178A278E3780844247907
:1007D000D1180844A04201D1012010BD002010BD55
:1007E00070B50120FFF798FF154C4FF4006500220B
:1007F0002946204602F0C7FC1E2002F09FFB012282
:100800002946204602F0BFFC0020FFF785FF142098
:1008100007F07CFA2946204602F0B0FC08B100201F
:1008200070BD2946204602F0A9FC0028F9D02946CF
:10083000204602F0A3FC0028F9D1012070BD000081
:1008400000100258014801F0D9BC0000FC0100244E
:10085000294A016891423AD0274A1832914236D04B
:10086000254A3032914232D0234A483291422ED02A
:10087000214A603291422AD01F4A7832914226D0D2
:100880001D4A9032914222D01B4AA83291421ED07A
:100890001A4A91421BD0194A1832914217D0174A6E
:1008A0003032914213D0154A483291420FD0134A48
:1008B000603291420BD0114A7832914207D00F4AF0
:1008C0009032914203D00D4AA832914211D1CAB25E
:1008D0001823103AB2FBF3F26FF30901032A02F076
:1008E0000703074AD25CC26500D9091D8165084625
:1008F000704721F0FF01F9E71000024010040240A8
:100900001C80000830B5224A012301689142CAB216
:100910001BD01F4C1434A14217D01D4C2834A142C7
:1009200013D01B4C3C34A1420FD0194C5034A1427F
:100930000BD0174C6434A14207D0154C7834A14237
:1009400003D0134C8C34A1420CD11421114C083A21
:10095000B2FBF1F10F4A803201F01F0504EB810177
:10096000AB4010E00C4D1824103A0D44B2FBF4F1EA
:10097000A82D00D80831094A01F01F0402EB8101BB
:10098000064AA3408032603080E80E0030BD00008F
:100990000854025800580258F0FBFDBF00080240FE
:1009A00010B50279531E072B2DD8174C0168A142B0
:1009B0001BD0154C1434A14217D0134C2834A1423B
:1009C00013D0114C3C34A1420FD00F4C5034A142F3
:1009D0000BD00D4C6434A14207D00B4C7834A142AB
:1009E00003D0094C8C34A14203D10849074C44314F
:1009F00002E00749064C443104EB8202C0E91B21A6
:100A000001219940416710BD08540258FC58025812
:100A1000FC08024010B583694FF0C074826A014639
:100A2000002053B1B3F5005F15D072B1012A0CD08C
:100A3000022A0AD0032A09D104E01AB1012A06D0F9
:100A4000022A03D1C96AC90100D5012010BDC96AB3
:100A5000A142FAD010BD002AF7D0012AF2D0022A12
:100A6000F3D0032AF3D010BD2DE9F04F804E804F14
:100A7000DFF8FC911836DFF8F8A148370468856D77
:100A80000AF1300ADFF8ECB14C45DFF8ECC1DFF8D1
:100A9000ECE16DD0B4426BD0544569D0BC4267D014
:100AA000DFF8D081A8F11808444561D05C455FD0DB
:100AB00064455DD074455BD0DFF8C481444557D0B0
:100AC000DFF8BC8108F11808444551D0DFF8B08147
:100AD00008F1300844454BD0DFF8A48108F14808FC
:100AE000444545D0DFF8988108F1600844453FD07F
:100AF000DFF88C8108F17808444539D0DFF880812F
:100B000008F19008444533D0DFF8748108F1A80853
:100B100044452DD0DFF86C81444529D0DFF864814D
:100B200008F11408444523D0DFF8588108F128085B
:100B300044451DD0DFF84C8108F13C08444517D0EE
:100B4000DFF8408108F15008444511D0DFF83481C6
:100B500008F1640844450BD0DFF8288108F17808D3
:100B6000444505D0DFF81C8108F18C08444509D1C3
:100B7000D0E91948C4F80480C46E1CB1D0E91C48FF
:100B8000C4F8048004684C452ED0B4422CD054459F
:100B90002AD0BC4228D0374E183EB44224D05C45FF
:100BA00022D0644520D074451ED0354EB4421BD0AF
:100BB000334E1836B44217D0314E3036B44213D0CB
:100BC0002F4E4836B4420FD02D4E6036B4420BD073
:100BD0002B4E7836B44207D0294E9036B44203D01B
:100BE000274EA836B44215D190F85C603F2406F039
:100BF0001F06B440AC600468256825F48025256094
:100C00002EE09A600068C160BDE8F08F99600068CE
:100C1000C260F9E71B4EB4421BD01A4E1436B442E0
:100C200017D0184E2836B44213D0164E3C36B44274
:100C30000FD0144E5036B4420BD0124E6436B4422C
:100C400007D0104E7836B44203D00E4E8C36B442E4
:100C5000DAD190F85C60012406F01F06B4406C60A5
:100C6000046863608368402B0368CFD1C9E7000044
:100C70001000024088000240A0000240B80002407C
:100C80001004024008540258704772B6FEE77047DD
:100C900070477047704770472DE9F0470F4690F84E
:100CA0005C109CB0044601294FF0000915D00026C5
:100CB000DFF8F880012084F85C0018961996216806
:100CC00041450ED13A4D0095284605F092F88246EE
:100CD000206805F08EF860B10EE002201CB0BDE87F
:100CE000F087206E84F85C6040F0200020660120D0
:100CF000F4E7BAF1000F09D0216E4FF0010941F07D
:100D000020002066484684F85C60E7E7206841469A
:100D1000884201D0A84201D1264800E0264840F68A
:100D20001F72D7F800C0254BBCF1000F23D0D0F8BC
:100D300008C0D7F804802CF4404C4CEA080CC0F8EA
:100D400008C0D4F800C08C4501D0AC4507D18968F3
:100D5000AB6801F0010103F00103194302E0996857
:100D600001F001010029CDD1BD68396883682943AC
:100D70009343194317E0876827F440478760276843
:100D80008F4201D0AF4207D18968AB6801F0010101
:100D900003F00103194302E0996801F00101002901
:100DA000B0D1816891438160ACE70000002002402F
:100DB00000210240002302400063025800600258F4
:100DC0002DE9F84F4FF0000B0446FE4E0D46CDF8CE
:100DD00000B0DA4690F85C00FB4F012808D04FF0D5
:100DE000010984F85C90206804F0FFFF18B154E218
:100DF0000220BDE8F88F286800280FDB2168B14287
:100E00000CD0CA69030327D090FAA0F0B0FA80F0A2
:100E100000F01F0309FA03F00243CA61D5E900128A
:100E20004FF00C0C20681F23C1F384610CEA921C64
:100E300002F01F02604493409140026B9A430A43C0
:100E40000263206804F0D1FF8046206804F0C9FFE7
:100E500058EA000003D048E1C0F38460D8E7AA68EC
:100E60002968206804F0D1FF2068B04204D1C2682C
:100E70006969C2F3C1020BE0D44A1268B9EB127F70
:100E800002D0C168C90605D4C2686969C2F382028A
:100E9000520004E0C268696902F0100252089140F1
:100EA0002A69042A5AD02B6800EB8202B04202F170
:100EB000600207D103F0F8401368084340F0004097
:100EC000106008E0D2F800C003F0F84008430CF0CE
:100ED0000041014311602068B0421CD12A69E969D0
:100EE00000EB8200026E22F080720A43026695F8DF
:100EF000201020682A6901290AD00021B042AAD115
:100F000000EB8200026E22F000720A430266ECE0FF
:100F10004FF00071F2E795F821202969012A17D0D6
:100F20005FF0000200EB8100016E21F000411143EF
:100F30000166297E20682A6901290CD000210369F5
:100F400002F01F02914023F4F0420A430261CCE018
:100F50004FF00042E6E74FF40061F0E7B04273D192
:100F6000002104F038FF000320684FF000016DD02D
:100F700004F031FF90FAA0F0B0FA80F12868020383
:100F800069D090FAA0F0B0FA80F0814204D100223A
:100F90002068114604F048FF2068012104F01BFF7F
:100FA000000320684FF0010158D004F014FF90FABC
:100FB000A0F0B0FA80F12868020354D090FAA0F0B3
:100FC000B0FA80F0814204D120680022012104F0AF
:100FD0002BFF2068022104F0FEFE000320684FF082
:100FE000020143D004F0F7FE90FAA0F0B0FA80F1CD
:100FF000286802033FD090FAA0F0B0FA80F0814256
:1010000004D120680022022104F00EFF2068032191
:1010100004F0E1FE000320684FF003012ED004F03D
:10102000DAFE90FAA0F0B0FA80F1286802032AD024
:1010300090FAA0F0B0FA80F0814256D120680022E8
:10104000032104F0F1FE50E020E0FFE704F0C3FECE
:10105000C0F3846192E7C0F3846096E704F0BBFEBE
:10106000C0F38461A7E7C0F38460ABE704F0B3FE8C
:10107000C0F38461BCE7C0F38460C0E704F0ABFE5A
:10108000C0F38461D1E7C0F38460D5E7016E2A78AC
:1010900001F0F841B1EB826F03D1016E21F0004104
:1010A000016620682978426E02F0F842B2EB816F47
:1010B00003D1416E21F00041416620682978826E9B
:1010C00002F0F842B2EB816F03D1816E21F0004152
:1010D000816620682978C26E02F0F842B2EB816F17
:1010E00003D1C16E21F00041C1662068816811F012
:1010F000010F71D1364AB042EB6829680FD1D0F8A0
:10110000B0C003F01808C1F3130322FA08F20A4032
:101110002CEA030C4CEA020CC0F8B0C00EE0D0F888
:10112000C0C003F01808C1F3130322FA08F20A4002
:101130002CEA030C4CEA020CC0F8C0C02548E96850
:1011400081427DD1286801031BD090FAA0F1B1FA49
:1011500081F1491C01F01F0109294FEA00313CD8F7
:10116000002911D090FAA0F1B1FA81F101F1010149
:1011700001F01F0109FA01F209D100BFC0F3846137
:1011800009E0C0F38461E4E7C0F38461EEE790FA1C
:10119000A0F1B1FA81F101F1010101F01F0142EA70
:1011A000816102D1C0F3846003E090FAA0F0B0FA4C
:1011B00080F000F1010000F01F0000EB400041EA68
:1011C000005140E000600258002102400010005C25
:1011D000FFFF0F000000FF4765E000290FD000BFB0
:1011E00090FAA0F1B1FA81F101F1010101F01F01C2
:1011F00009FA01F206D100BFC0F3846106E0C0F332
:101200008461F1E790FAA0F1B1FA81F101F10101F5
:1012100001F01F0142EA816102D1C0F3846003E062
:1012200090FAA0F0B0FA80F0434A00F1010000F01B
:101230001F0000EB400002EB005041EA000100E01B
:1012400005E041F00071AA68206804F0DEFDD5F8E1
:1012500000C0BCF1000F26DA384B20683849DFF8AF
:10126000E490984201D0B84201D10A4600E04A46D3
:101270009268984202F0E07201D0B84209D19D68AC
:10128000D7F8088005F0010508F0010845EA0805CF
:1012900002E0B56805F001054DB1216E4FF0010A7D
:1012A00041F020002066504684F85CB0A1E5264D50
:1012B000AC451CD115021AD4B042F4D1984202D0E8
:1012C000B84200D049468B6842F4000023F0E07237
:1012D00002438A601E491D480968B1FBF0F04000D6
:1012E000801C00E0401E00900028FBD1DBE7194D78
:1012F000AC450CD1D5010AD4B042D4D1984202D029
:10130000B84200D049468B6842F080700EE0124D22
:10131000AC45C8D15502C6D4B042C4D1984202D01F
:10132000B84200D049468B6842F4800023F0E07256
:1013300002438A60B7E70000000020FE0020024060
:101340000023024000630258000052C7400D030012
:101350002C000024000021C3000084CB704770479C
:101360000068006C704700002DE9F05F04460068DB
:1013700006684568DFF87082DFF870B2DFF87092B7
:10138000404501D0484501D1584600E09948806861
:1013900000F01F07B0070ED5A8070CD5206EC006B9
:1013A00003D4206E40F4006020662046FFF76FFCF7
:1013B000216802200860700701D5680703D4300750
:1013C00037D5280735D5206EC00603D4206E40F4EB
:1013D00000702066206804F010FD20B320684845A6
:1013E00001D1424600E00246824208D03FB1052FBB
:1013F00005D0092F03D0484503D1414602E0C1681A
:1014000001E00146C96889040DD4016809070AD5BD
:1014100004F0EBFC58B3206E40F010002066606EC4
:1014200040F0010060662046FFF798FF21680C201D
:101430000860B00601D5A80603D4700658D5680622
:1014400056D5206EC00603D4206E40F400502066AE
:101450002068C16C11F4C07F1AD000218A4604F0C4
:10146000CCFC02462068484514D1434613E020686E
:10147000416821F00C014160206E20F480702066EC
:10148000206EC004CFD4206E40F001002066CAE771
:101490000121E3E70346834208D03FB1062F05D080
:1014A000072F03D0484503D1414602E0C16801E05F
:1014B0000146C968BAF1000F14D08B0102D58AB178
:1014C0008A040FD4026852060CD589020AD404F0AB
:1014D00088FCE8B3206E40F010002066606E40F09B
:1014E000010060662046FFF7D3FB2168602008609A
:1014F00030060BD5280609D5206E40F480302066D2
:10150000204600F0CDF9216880200860F0050CD558
:10151000E8050AD5206E40F4003020662046FFF72B
:10152000B9FB21684FF480700860B0050CD5A805A0
:101530000AD5206E40F4802020662046FFF7ABFBE2
:1015400021684FF400700860F00631D5E80600E02D
:101550000AE02DD5E06BE8B12068EFB3404501D03B
:10156000484512D1584611E02068416821F06001D9
:101570004160206E20F480502066206EC005B1D4FA
:10158000206E40F001002066ACE71A48806800F445
:10159000404050B1206E40F480602066606E40F0A4
:1015A000020060662046FFF7DAFE2168102008601E
:1015B000700517D5680515D5216E4FF4806041F48C
:1015C00080412166616E41F0080161662168086012
:1015D0002046BDE8F05F00E001E0FFF75ABBC068BD
:1015E0008007D6E7BDE8F09F0020024000230240BC
:1015F00000210240006302582DE9F8434FF0000536
:1016000004002E46009502D0206E18B108E001209B
:10161000BDE8F883204600F045F9656684F85C5023
:1016200020688168C1F3407119B181688E4A114008
:10163000816020688168C1F3007181B981688B4A3B
:10164000114041F0805181608A4989480968B1FBA5
:10165000F0F0401C00E0401E00900028FBD1206804
:101660008168C1F3007141B9216E012641F010017A
:101670002166616E41F00101616604F0B6FB216EE6
:10168000C90600D420B1206E012640F01000E0E031
:10169000206E20F4807040F002002066206881688F
:1016A000754D11F0010F1ED1744B754A984201D04F
:1016B000904207D19968976801F0010107F001078E
:1016C000394302E0A96801F0010161B9984201D0F3
:1016D000904201D16B4800E06B488268616822F457
:1016E0007C120A4382602168A9421FD1637ED4E93B
:1016F0000207E26B5B033A43082805D00C280FD0A1
:101700001C280FD018280FD05FF0000000F00C0745
:1017100094F8200043EA47031A4342EA00400FE0EE
:101720000420F3E70820F1E71C20EFE7627E94F83D
:101730002030A768E06B520342EA0342384310436B
:1017400094F82020012A04D1A28C504B03EB424292
:101750001043A26A2AB1E36A02F47872024343EAB0
:101760000200CA68A9420BD1494B1A400243CA6021
:101770002068626B016921F040611143016103E05F
:10178000444B1A400243CA60206804F02EFB07460F
:10179000206804F026FB07434ED12068A94648453F
:1017A00006D1217E94F83820890341EA420103E002
:1017B000227E216B41EA8231C26844F203039A43DC
:1017C0000A43C26094F844000128206803D00169EC
:1017D00021F0010122E048450ED1D4E9121CD4E9E0
:1017E000143502692C4F41EA0C012B433A4019434E
:1017F000114341F0010111E0D4E91317B4F848C0D6
:10180000DFF89880636D026908EB0C4C224D394378
:1018100043EA0C036D1E2A401943114301612068FD
:10182000236C026922F070421A4302612068484525
:1018300002D02046FEF7F0FD2069012820680BD079
:10184000016B21F00F010163206E20F0020040F0D7
:10185000010020663046DBE6E269016B521E21F092
:101860000F011143EFE70000C0FFFF5FC0FFFF7FE4
:10187000400D03002C0000240060025800200240AC
:101880000021024000230240006302580000FEFFD6
:101890000740F0FF03C0F0FF1FF800FC0100FFFF4E
:1018A000704700002DE9F041B4B0054614212EA880
:1018B000FEF760FDB8216846FEF75CFD2968032746
:1018C000354D4FF40030354A4FF00008314E0835A1
:1018D000314C914226D10022289081006846CDE902
:1018E000001202F0BFF808B1FFF7CFF93068401CD2
:1018F0003060012807D1206840F020002060206877
:1019000000F020003390286840F00100286028682B
:101910002EAA802100F00100339082E88201204845
:101920002EA92AE01F4A914231D1002228904FF47B
:1019300000216846CDE9001202F094F808B1FFF7E3
:10194000A4F93068401C3060012807D1206840F0BD
:1019500020002060206800F020003390286840F0CC
:101960002000286028682EAA4FF4804100F0200053
:10197000339082E882010C482EA901F0F1FA00228E
:101980001220114601F0CAFC122001F0B9FC34B05B
:10199000BDE8F0811C000024D84402580020024019
:1019A0000000025800210240001402582DE9F047BF
:1019B000434D0446006888464249434BA842DFF83D
:1019C0000C9101D0484501D10A4600E01A469268C0
:1019D00002F01F066269082A14D0AEB1052E13D09A
:1019E000092E11D0A84202D0484500D01946886877
:1019F00000F4404058B1206E40F0200020660120E5
:101A0000BDE8F087082703E0C068C007F2E70427B5
:101A100001F0BEFB824618E0B8F1FF3F15D001F09F
:101A2000B7FBA0EB0A01414502D8B8F1000F0CD179
:101A300020680068384208D1206E002184F85C10CC
:101A400040F0040020660320DAE72068006838428E
:101A5000E2D0206E40F400702066206804F0CDF9DA
:101A600080B1607E70B92068006800070AD5206EDA
:101A700020F480702066206EC00403D4206E40F0F5
:101A8000010020662068484501D12A4600E0024650
:101A9000824210D07EB1052E0DD0092E0BD04845C4
:101AA00000D00546E968082F07D0490401D40C216D
:101AB00001600020A4E7C168F5E70821F8E700000D
:101AC000002002400023024000630258002102402F
:101AD0002DE9F0413B4D044600683B4FA84201D040
:101AE000B84201D1394900E03949896801F01F063F
:101AF00004F07BF918B102210846BDE8F08194F8A2
:101B00005C0001280CD0012084F85C002046FEF720
:101B10009FFD01004FF0000204D084F85C20EBE749
:101B20000220EAE7236E40F6016C206823EA0C03EA
:101B3000B84243F48073236601D12B4600E003468C
:101B4000834200D01EB9236E23F480132366236ED4
:101B5000DB0404D5636E23F00603636600E062666F
:101B60001C23036084F85C202068B84201D12A4617
:101B700000E00246824215D0A6B1052E12D0092EF1
:101B800010D0226EB84242F48012226600D0054680
:101B9000E8688001B0D5206E20F4005040F48050F9
:101BA0002066A9E7C268920105D5226E22F4005290
:101BB00042F4805222668268064B1A40121D8260EF
:101BC0009AE700000020024000210240002302406A
:101BD00000630258C0FFFF7F10B5044690F85C0018
:101BE000012808D0012084F85C0003212046FEF77C
:101BF00085FC10B10BE0022010BD2046FEF7F0FC82
:101C000028B9216E21F4885141F00101216600219B
:101C100084F85C1010BD00002DE9F84F044601F077
:101C2000B7FA00903CB194F83500022806D0802124
:101C300061650020E4E00120BDE8F88FC74DC74E84
:101C4000C649183520683036DFF81483DFF814935E
:101C50008842DFF814A3DFF814B32ED0A8422CD0AA
:101C6000B0422AD0404528D0484526D0504524D0FF
:101C7000584522D0BD4A183290421ED0BC4A9042EC
:101C80001BD0BB4A1832904217D0B94A303290422A
:101C900013D0B74A483290420FD0B54A60329042D2
:101CA0000BD0B34A7832904207D0B14A903290427A
:101CB00003D0AF4AA832904209D1026822F01E0236
:101CC00002602068426922F08002426103E00268FB
:101CD00022F00E02026027688F4238464DD0A8429B
:101CE0004BD0B04249D0404547D0484545D05045FB
:101CF00043D0584541D09D4A183290423DD09C4A2D
:101D000090423AD09A4A1832904236D0984A3032AD
:101D1000904232D0964A483290422ED0944A603255
:101D200090422AD0924A7832904226D0904A9032FD
:101D3000904222D08E4AA83290421ED08D4A9042C4
:101D40001BD08C4A1432904217D08A4A28329042D3
:101D500013D0884A3C3290420FD0864A503290428B
:101D60000BD0844A6432904207D0824A7832904243
:101D700003D0804A8C32974204D1206E026822F44C
:101D80008072026075492068884228D0A84226D017
:101D9000B04224D0404522D0484520D050451ED0E6
:101DA00058451CD071491831884218D07049884272
:101DB00015D06F491831884211D06D4930318842B1
:101DC0000DD06B494831884209D069496031884259
:101DD00005D067497831884201D065499031016862
:101DE00021F0010101600EE001F0D2F90099401AE2
:101DF000052808D9202262650321002084F83510C7
:101E000084F8340017E73868C007EDD1534A012140
:101E1000206890422ED0A8422CD0B0422AD0404513
:101E200028D0484526D0504524D0584522D04F4B85
:101E3000183398421ED04E4B98421BD04C4B18334F
:101E4000984217D04A4B3033984213D0484B48330E
:101E500098420FD0464B603398420BD0444B7833B6
:101E6000984207D0424B9033984203D0404BA8335E
:101E7000984208D194F85C703F23A06D07F01F07CB
:101E8000BB40836007E094F85C30A06D03F01F0353
:101E900001FA03F34360206890424DD0A8424BD032
:101EA000B04249D0404547D0484545D0504543D041
:101EB000584541D02D4A183290423DD02C4A90428C
:101EC0003AD02B4A1832904236D0294A30329042CA
:101ED00032D0274A483290422ED0254A6032904272
:101EE0002AD0234A7832904226D0214A903290421A
:101EF00022D01F4AA83290421ED01E4A90421BD0C8
:101F00001C4A1432904217D01A4A2832904213D0F9
:101F1000184A3C3290420FD0164A503290420BD0B1
:101F2000144A6432904207D0124A7832904203D069
:101F3000104A8C3290420BD1D4E919024260E06E13
:101F400030B1026822F480720260D4E91C0242605F
:101F5000002084F8351084F834006DE6100002404B
:101F6000580002407000024088000240A000024079
:101F700010040240085402582DE9F05F28B190F88F
:101F80003510022904D0802141650120BDE8F09F71
:101F9000904C904B0168183C18338E4ADFF83C9205
:101FA000A1428D4CDFF838E28E4FDFF83CB2DFF80B
:101FB0003CA28F4D8F4E31D091422FD099422DD0DF
:101FC000A1422BD0494529D0714527D0B94225D00F
:101FD000DFF810C20CF1180C61451FD0DFF808C201
:101FE000ACF1600C614519D0DFF8FCC1ACF1480CD4
:101FF000614513D0DFF8F0C1ACF1300C61450DD074
:10200000DFF8E4C1ACF1180C614507D0594505D0A3
:10201000514503D0A94201D0B1422CD1DFF8B4C15F
:102020004FF0040880F83580ACF1180C61451DD0E4
:1020300091421BD0994219D0A14217D0494515D0E1
:10204000714513D0B94211D06648183081420DD085
:1020500065486038814209D063484838814205D0DC
:1020600061483038814201D05F481838086820F054
:1020700001000860ABE0D1F800C02CF00E08DFF8DA
:1020800054C1C1F80080ACF1180C0168614527D03B
:10209000914225D0994223D0A14221D049451FD059
:1020A00071451DD0B9421BD0DFF838C10CF1180CB6
:1020B000614515D0DFF830C1ACF1600C61450FD03F
:1020C000DFF824C1ACF1480C614509D0DFF818C134
:1020D000ACF1300C614503D0DFF80CC1ACF1180C49
:1020E000D1F800C02CF0010CC1F800C0DFF8E4808A
:1020F0004FF0010C0168A8F11808414546D0914203
:1021000044D0994242D0A14240D049453ED0714589
:102110003CD0B9423AD0334A1832914236D0324A92
:10212000603A914232D0304A483A91422ED02E4AFB
:10213000303A91422AD02C4A183A914226D0594539
:1021400024D0514522D0A94220D0B1421ED02A4AE3
:1021500091421BD0284A1432914217D0264A283285
:10216000914213D0244A3C3291420FD0224A50323D
:1021700091420BD0204A6432914207D01E4A7832F5
:10218000914203D01C4A8C32914218D1016E0A68E8
:1021900022F480720A6090F85C20816D02F01F02C8
:1021A0000CFA02F24A60D0E919124A60C16E31B1EC
:1021B0000A6822F480720A60D0E91C124A60002288
:1021C000016D80F835C080F8342001B188470020C7
:1021D000DCE6000028000240580002407000024087
:1021E00088000240A00002407004024088040240BF
:1021F000A0040240B8040240085402582DE9FC5FD4
:102200000446F74E0020DFF8D88300904FF41652B2
:10221000F44808F11808A56DDFF8C493DFF8C0A3EF
:10222000016809F1300920680AF1480AB1FBF2F1AE
:10223000B04201912F68D5F800C0DFF8ACB335D0BB
:102240004146884232D0484530D050452ED058457E
:102250002CD0E5491831884228D0E34930318842F2
:1022600024D0E1494831884220D0E04988421DD03D
:10227000DE491831884219D0DC493031884215D006
:10228000DA494831884211D0DFF860E30EF1600E80
:1022900070450BD0D54A7832904207D0D34B90335B
:1022A000984203D0D149A83188427DD194F85C206E
:1022B000082102F01F0201FA02F23A424AD0B0426B
:1022C00032D0404530D048452ED050452CD05845CE
:1022D0002AD0C54A1832904226D0C34A30329042A2
:1022E00022D0C14A483290421ED0C04A90421BD0F0
:1022F000BE4A1832904217D0BC4A3032904213D0B6
:10230000BA4A483290420FD0B84A603290420BD05D
:10231000B64A7832904207D0B44A9032904203D005
:10232000B24AA832904203D1026802F0040202E0ED
:10233000026802F008026AB1026822F00402026038
:1023400094F85C0000F01F008140A960606D40F0CF
:102350000100606594F85C00012100F01F008140DD
:10236000394240D02068B04234D0404532D0484550
:1023700030D050452ED058452CD09B4A1832904230
:1023800028D0994A3032904224D0974A483290421D
:1023900020D0964A90421DD0944A1832904219D0CB
:1023A000924A3032904200E0AFE113D08F4A483277
:1023B00090420FD08D4A603290420BD08B4A7832D7
:1023C000904207D0894A9032904203D0874AA8327F
:1023D00090427DD1406910F0800F04D0A960606DFB
:1023E00040F00200606594F85C00042100F01F00DA
:1023F000814039423ED02068B04232D0404530D092
:1024000048452ED050452CD058452AD0764A18320F
:10241000904226D0744A3032904222D0724A4832DA
:1024200090421ED0714A90421BD0704A183290429E
:1024300017D06E4A3032904213D06C4A48329042E4
:102440000FD06A4A603290420BD0684A783290428C
:1024500007D0664A9032904203D0644AA832904234
:102460004ED1006810F0020F04D0A960606D40F0FA
:102470000400606594F85C00102100F01F008140AA
:10248000394258D02068B04234D0404532D0484517
:1024900030D050452ED058452CD0534A1832904257
:1024A00028D0514A3032904224D04F4A483290428C
:1024B00020D04E4A90421DD04C4A1832904219D03A
:1024C0004A4A3032904215D0484A4832904200E0A1
:1024D00014E00FD0454A603290420BD0434A783224
:1024E000904207D0414A9032904203D03F4AA832EE
:1024F000904207D1006800F0080006E0006872E72B
:102500000068B7E7006800F00400A0B1A960206887
:102510000168490304D50068000308D5A16C07E0F1
:102520000168C90503D4016821F008010160216C2C
:1025300009B12046884794F85C00202100F01F0074
:102540008140394279D02068B04232D0404530D005
:1025500048452ED050452CD058452AD0224A183212
:10256000904226D0204A3032904222D01E4A483231
:1025700090421ED01D4A90421BD01C4A18329042F5
:1025800017D01A4A3032904213D0184A483290423B
:102590000FD0164A603290420BD0144A78329042E3
:1025A00007D0124A9032904203D0104AA83290428B
:1025B00003D1006800F0100002E0006800F00200A3
:1025C000B0B3A96094F835000428206801680FD0E2
:1025D00049037ED5006800032BD4616C2AE000001B
:1025E000100002402C000024700002401004024041
:1025F00021F0160101602068416921F080014161EC
:10260000206C08B9A06C20B12068016821F0080195
:10261000016094F85C303F21012003F01F03002289
:102620009940A96084F8350084F83420216D65E074
:1026300003E0E16B09B120468847606D00287DD03A
:10264000606DC00759D02068042184F83510B0426D
:102650002BD0404529D0484527D0504525D0584556
:1026600023D09D49884220D09B49183188421CD0F4
:1026700099493031884218D09849884215D09749F5
:102680001831884211D09549303188420DD0934994
:102690004831884209D091496031884205D08F493C
:1026A0007831884201D08D499031016821F00101D3
:1026B000016020680099019A491C0091914202D85A
:1026C0000168C907F6D10068C00710D003200FE0E9
:1026D000FFE70168C905ACD403680121002223F09B
:1026E0001003036084F8351084F83420A1E701203A
:1026F00084F83500002084F83400E16C00291DD0F6
:1027000002B02046BDE8F05F0847754988421DD0F9
:1027100073491431884219D071492831884215D043
:102720006F493C31884211D06D49503188420DD0FB
:102730006B496431884209D0694900E084E078310E
:10274000884203D066498C3188427DD194F85C8000
:102750000427016808F01F0807FA08F717EA0C0FAA
:10276000009746D04F0744D500980F04686003D502
:10277000C8033CD4A16CC1E7880638D42068B042B5
:102780002DD055496039884229D0484527D0504539
:1027900025D0584523D05049884220D04E49183181
:1027A00088421CD04C493031884218D04B4988426D
:1027B00015D04A491831884211D0484930318842F1
:1027C0000DD046494831884209D0704507D0904223
:1027D00005D0984203D04149A831884203D101680D
:1027E00021F0080102E0016821F004010160216C80
:1027F00084E7022707FA08F717EA0C0F00974ED074
:102800008F074CD500980F04686003D5C80344D4E3
:10281000616C73E7880640D42068B0422FD02E49FF
:10282000603988422BD0484529D0504527D058459B
:1028300025D02949884222D02749183188421ED004
:1028400025493031884200E044E018D023498842CD
:1028500015D022491831884211D0204930318842A0
:102860000DD01E494831884209D0704507D09042AA
:1028700005D0984203D01949A831884203D1016894
:1028800021F0140102E0016821F00A010160012138
:1028900084F83510002084F83400E16B2EE708221C
:1028A00002FA08F212EA0C0F14D0090712D50168D7
:1028B00021F00E01016094F85C100120002201F06B
:1028C0001F0100FA01F16960606584F8350084F841
:1028D000342012E7BDE8FC9F88000240100402404B
:1028E000085402582DE9F05F044600F051FC002C1A
:1028F00007467DD0E24E022120684FF00308DFF842
:1029000084934FF00005DFF880A3B042DFF87CB37A
:1029100034D0DB4A1832904230D048452ED0504552
:102920002CD058452AD0D94A1832904226D0D74ABE
:102930003032904222D0D54A483290421ED0D44AFA
:1029400090421BD0D24A1832904217D0D04A30322F
:10295000904213D0CE4A483290420FD0CC4A6032D7
:1029600090420BD0CA4A7832904207D0C84A90327F
:10297000904203D0C64AA83290427DD184F83510E7
:10298000B04284F834502ED0BD49183188422AD044
:10299000484528D0504526D0584524D0BB49183149
:1029A000884220D0B949303188421CD0B7494831DB
:1029B000884218D0B649884215D0B54918318842A6
:1029C00011D0B349303188420DD0B14948318842E5
:1029D00009D0AF496031884205D0AD49783188428D
:1029E00001D0AB499031016821F00101016008E09C
:1029F00025E100BF00F0CCFBC01B052801D9202138
:102A00001AE120680068C007F4D1D4E90203216804
:102A1000103418438E4694E88410D4E903380968CA
:102A20003A4310439B4A40EA0C006769184311403F
:102A3000103C40EA0800042F40EA010003D1D4E929
:102A40000B12114308436168A1F12902052A0BD931
:102A5000163A032A08D9083A012A05D9083A032A5E
:102A600002D97439032901D840F48010CEF800004F
:102A70002068676A406900E020E0042F20F007002A
:102A800047EA00070DD1D4E90A01074349B12046BE
:102A9000FDF7C0FF28B140206065012184F83510A2
:102AA000CDE0206847612046FDF7D2FE94F85C2017
:102AB0003F2102F01F029140816055E0764A90422A
:102AC0001BD0754B1433984217D0734B2833984260
:102AD00013D0714B3C3398420FD06F4B5033984218
:102AE0000BD06D4B6433984207D06B4B78339842D0
:102AF00003D0694B8C3398427ED184F8351084F82A
:102B00003450664B0168A26801EA030E402A74D073
:102B1000802A73D05FF00002D4E90378D4E905314C
:102B200042EAD70242EAD8085B4AD4E9077C48EA7D
:102B3000D30848EAD10141EAD701524241EA1C11C7
:102B4000142341EA0E01016020681044B0FBF3F049
:102B50008000E0652046FDF77BFE94F85C200121B3
:102B600002F01F02914041602068B04257D04449B2
:102B70001831884253D0484551D050454FD0584520
:102B80004DD042491831884249D0404930318842BD
:102B900045D03E494831884241D03D4988423ED0E7
:102BA0003B49183188423AD039493031884236D0D1
:102BB00037494831884232D03549603188422ED079
:102BC0003349783188422AD031499031884226D021
:102BD0002F49A831884222D02F4988421FD02E4940
:102BE000143188421BD02C492831884217D02A49F9
:102BF0003C31884213D002E01DE017E018E026497E
:102C0000503188420BD024496431884207D0224990
:102C10007831884203D020498C31884229D120461E
:102C2000FDF770FEA06880280CD00CE0102273E73E
:102C30004FF4804270E74021616584F835800120BF
:102C4000BDE8F09F6560216E20790860D4E9190124
:102C500041606068401E072808D82046FDF7A0FEA6
:102C6000E06E0560D4E91C01416002E0E56625677D
:102C700065670120656584F835000020E0E7000005
:102C80001000024040000240580002407000024024
:102C9000100402403F8010FE085402580F00FEFF4F
:102CA0002DE9F84F04008C464FF00000009014D03E
:102CB00094F83400012812D094F8355001200021F6
:102CC00084F83400012D0CD0C00260650120009012
:102CD00084F834100098BDE8F88F0120FBE702204B
:102CE000F9E78C4D0226206884F83560A8428A4DA9
:102CF00061658A4E8A4FDFF82C82DFF82C92DFF86C
:102D00002CA2DFF82CB226D0A84224D0B04222D088
:102D1000B84220D040451ED048451CD050451AD05E
:102D2000584518D08349884215D0824918318842C5
:102D300011D08049303188420DD07E4948318842D7
:102D400009D07C496031884205D07A49783188427F
:102D500001D078499031016821F00101016061469C
:102D60002046FDF781FE6B49206888422CD0A8429E
:102D70002AD0B04228D0B84226D0404524D0484579
:102D800022D0504520D058451ED06A4A90421BD0D0
:102D9000684A1832904217D0664A3032904213D0B7
:102DA000644A483290420FD0624A603290420BD05F
:102DB000604A7832904207D05E4A9032904203D007
:102DC0005C4AA83290420CD1026822F01E0242F006
:102DD00016020260206C88B12068026842F0080286
:102DE0000BE0026822F00E0242F00A020260206C40
:102DF00020B12068026842F0040202602068884224
:102E00004BD0A84249D0B04247D0B84245D0404507
:102E100043D0484541D050453FD058453DD0454A24
:102E200090423AD0434A1832904236D0414A30322A
:102E3000904232D03F4A483290422ED03D4A6032D2
:102E400090422AD03B4A7832904226D0394A90327A
:102E5000904222D0374AA83290421ED0364A904241
:102E60001BD0354A1432904217D0334A2832904250
:102E700013D0314A3C3290420FD02F4A5032904208
:102E80000BD02D4A6432904207D02B4A78329042C0
:102E900003D0294A8C3290420DD1206E0268D203B1
:102EA00003D5026842F480720260E06E18B10268D5
:102EB00042F4807202602068884226D0A84224D062
:102EC000B04222D0B84220D040451ED048451CD048
:102ED00050451AD0584518D01649884215D0154982
:102EE0001831884211D01349303188420DD0114930
:102EF0004831884209D00F496031884205D00D49D8
:102F00007831884201D00B499031016841F00101CC
:102F10000160DFE61000024028000240400002404D
:102F2000580002407000024088000240A0000240A9
:102F3000B8000240100402400854025870B504461C
:102F400000F026F90546601C02D0044800780444CD
:102F500000F01EF9401BA042FAD370BD20000024EF
:102F60002DE9F84F03247A4D00234FF001094FF06B
:102F7000B04B4FF00F0AE4E009FA03F6324078D084
:102F80000F7907F00307012F01D0022F1AD18768AC
:102F90004FEA430ED1F80CC004FA0EF827EA0807EE
:102FA0000CFA0EFC4CEA070CC0F808C0476891F810
:102FB00004C0B743CCF3001C0CFA03FC4CEA070C2A
:102FC000C0F804C00E79F643B6070BD0C6684FEAC6
:102FD00043088F6804FA08FC26EA0C0607FA08F78B
:102FE0003743C7600E7906F00306022E12D1DE08C1
:102FF0000F694FEA437C00EB8606B646366A4FEA15
:10300000DC6C0AFA0CF807FA0CF726EA08063743D4
:10301000CEF820700F7906684FEA430807F00307DF
:1030200004FA08FC07FA08F726EA0C06374307609B
:103030004E6816F4403F1CD0464E376847F00207F2
:10304000376036689F0706F00206009623F00306F5
:1030500006F1B046B6463F0FD6F80864DFF8F880B0
:103060000AFA07FC404526EA0C0603D14FF0000C93
:103070003AE065E0DFF8E4C0604502D14FF0010CB2
:1030800032E0DFF8DCC0604502D14FF0020C2BE0EB
:10309000DFF8D0C0604502D14FF0030C24E0DFF828
:1030A000C8C0604502D14FF0040C1DE0DFF8BCC081
:1030B000604502D14FF0050C16E0DFF8B4C0604562
:1030C00002D14FF0060C0FE0DFF8A8C0604502D136
:1030D0004FF0070C08E0DFF8A0C0604502D14FF0C8
:1030E000090C01E04FF00A0C0CFA07FC4CEA060C44
:1030F000CEF808C44F68DBF80060FF0226EA02063B
:1031000000D516435F46CBF80060D1F804C0DBF869
:1031100004605FEA8C2C26EA020600D516437E6026
:103120006E684F6826EA0206BF0300D516436E603C
:103130002E684F6826EA0206FF0300D516432E606C
:103140005B1C0A6832FA03F67FF416AFBDE8F88F0D
:1031500080000058F444025800000258000402584D
:1031600000080258000C02580010025800140258BF
:1031700000180258001C0258002402580069084038
:1031800000D0012070470AB1816170470904FBE754
:1031900001488068704700002000002402488168D0
:1031A000027811448160704720000024032010B58C
:1031B00000F0D4F801F068FA0F4A10491468136857
:1031C000C4F3032203F00F038A5CC95C02F01F0200
:1031D00001F01F01D0400A4A20FA01F111600949AB
:1031E00008600F2000F010F808B1012010BD00F0B9
:1031F00079F8002010BD0000184402584C800008E7
:10320000300000242C00002470B50D4D04462878B1
:10321000A0B14FF47A71B1FBF0F00A490968B1FB33
:10322000F0F001F060FD48B9102C07D200222146D1
:10323000501E00F073F800206C6070BD012070BD5E
:10324000200000242C000024154BF0B5083B4278E8
:1032500013491A600B680A1F23F001030B604368CF
:103260001360057BC67A827A437B2D07847B45EA0F
:103270000665C77B90F809C0067A90F800E045EA39
:10328000C24040EA834040EA444040EA074040EA06
:103290000C2040EA460040EA0E000860F0BD000045
:1032A000A0ED00E0BFF35F8F044800210368034AEC
:1032B00023F48033036070321160704724ED00E026
:1032C000074A40F00100064970321060086840F477
:1032D00080300860BFF34F8FBFF36F8F70470000DF
:1032E00024ED00E0054808B5016841F002010160E5
:1032F000006800F00200009008BD0000F44402588D
:10330000002809DB410900F01F028900012001F1BA
:10331000E0219040C1F80001704700000E4BF0B46E
:103320001B680D46C3F30223C3F10706042E00D920
:103330000426191D072901D2002300E0DB1E012409
:1033400004FA06F19C40491E2940641E994014402D
:103350002143F0BC04F010BC0CED00E0064900F085
:10336000070210B54FF6FF040868044B204040EAFE
:1033700002201843086010BD0CED00E00000FA05C3
:10338000134970B50A68D243520705D5096801F0A0
:103390000701814213D118E00A6822F007020243B4
:1033A0000A60FFF7F5FE0A4D4FF47A760446083DB1
:1033B00007E000BFFFF7ECFE001BB04201D901207F
:1033C00070BD2868C0438004F4D4002070BD0000A4
:1033D0000C48025810B501F011F905490968054A71
:1033E000C1F30211515C01F01F01C84010BD000083
:1033F000204402584C8000084A4930B5494C0B1D06
:103400000A680C3409681D68246802F0030305F09B
:103410000102C1F30511C4F3CC04002914FB02F22C
:1034200000EE102AF8EE400A76D0414A9FED3E1A8F
:10343000DFED3E1AB7EE000A23B1012B5AD0022B62
:1034400018D15CE0374C283C23689B0612D5394BD9
:10345000246801EE901A1168C4F3C104F8EE612AE1
:10346000E34001EE903AC1F30801F8EE611A81EEF3
:10347000A22A07E002EE101A1168F8EE422A81EE45
:10348000A22A45E001EE901A1168F8EE611A40EEAA
:10349000811A71EE800A62EE200AC1F3462101EE24
:1034A000101AB8EE411A31EE001AC0EE811ABCEEC5
:1034B000E11A80ED001A1168C1F3064101EE101AFD
:1034C000B8EE411A31EE001AC0EE811ABCEEE11AD4
:1034D00080ED011A1168C1F3066101EE101AB8EE11
:1034E000411A31EE000A80EE801ABCEEC10A80ED6E
:1034F000020A30BD01EE901ADFED0F2A03E001EE63
:10350000901ADFED0E2A1168F8EE611A82EEA12AF8
:10351000C1F30801B6E7FFE7002101604160816067
:1035200030BD000028440258000000390024744CCB
:10353000304402580090D0030024744A20BCBE4B93
:10354000494930B5484C0B1D0A68143409681D6898
:10355000246802F00303C5F30012C1F30531C4F37C
:10356000CC04002914FB02F200EE102AF8EE400A07
:1035700075D03F4A9FED3D1AB7EE000A6BB1DFED03
:103580003D1A012B01D0022B64D002EE101A1168F3
:10359000F8EE422A81EEA22A21E0334C283C23682F
:1035A0009B0612D5344B246801EE901A1168C4F3BF
:1035B000C104F8EE612AE34001EE903AC1F308013C
:1035C000F8EE611A81EEA22A0BE001EE901ADFED0F
:1035D0002B2A00BFF8EE611A116882EEA12AC1F30E
:1035E000080101EE901A1168F8EE611A40EE811A96
:1035F00071EE800A62EE200AC1F3462101EE101A34
:10360000B8EE411A31EE001AC0EE811ABCEEE11A92
:1036100080ED001A1168C1F3064101EE101AB8EEF0
:10362000411A31EE001AC0EE811ABCEEE11A80EDAB
:10363000011A1168C1F3066101EE101AB8EE411AC1
:1036400031EE000A80EE801ABCEEC10A80ED020A5B
:1036500030BD04E001EE901ADFED092ABAE700213F
:10366000016041608160F3E728440258000000399E
:10367000384402580024744A0090D0030024744C4B
:1036800020BCBE4B494930B5484C0B1D0A681C3460
:1036900009681D68246802F00303C5F30022C1F322
:1036A0000551C4F3CC04002914FB02F200EE102AE9
:1036B000F8EE400A75D03F4A9FED3D1AB7EE000A7A
:1036C0006BB1DFED3D1A012B01D0022B64D002EE6D
:1036D000101A1168F8EE422A81EEA22A21E0334C3A
:1036E000283C23689B0612D5344B246801EE901ABF
:1036F0001168C4F3C104F8EE612AE34001EE903A88
:10370000C1F30801F8EE611A81EEA22A0BE001EE86
:10371000901ADFED2B2A00BFF8EE611A116882EED5
:10372000A12AC1F3080101EE901A1168F8EE611A9E
:1037300040EE811A71EE800A62EE200AC1F3462142
:1037400001EE101AB8EE411A31EE001AC0EE811ADD
:10375000BCEEE11A80ED001A1168C1F3064101EEDA
:10376000101AB8EE411A31EE001AC0EE811ABCEE02
:10377000E11A80ED011A1168C1F3066101EE101A19
:10378000B8EE411A31EE000A80EE801ABCEEC10A92
:1037900080ED020A30BD04E001EE901ADFED092A47
:1037A000BAE70021016041608160F3E728440258D4
:1037B00000000039404402580024744A0090D003AD
:1037C0000024744C20BCBE4B2DE9F04FA14A0546A5
:1037D000DFF87CA280F48070DFF8809289B013114A
:1037E0009F4C08439C48AAF104064FF0805C4FF0C0
:1037F000005828D0DFF858B285F480670F430BF1EA
:10380000080B4FD085F400670F4360D085F48057D4
:103810000F4372D085F400570F434FF480394FF4B3
:10382000003E69D085F400270F4373D085F48037BC
:103830000F4370D085F480460E436DD085F400426E
:103840000A436AD02AE0DAF8001001F007010529DE
:1038500024D2DFE801F0F9AA6A259F0006A8FFF745
:10386000CBFD079809B0BDE8F08F6846FFF768FE0A
:103870000098F7E703A8FFF705FF0398F2E7206831
:10388000C0F3C10022FA00F0ECE72268D2056ED541
:1038900061456CD11846E5E74145E3D00020E1E7FA
:1038A0004846DFE7DBF8001001F46001B1F5800F56
:1038B0003BD005DC00294AD0B1F5001FEED174E001
:1038C000B1F5C00FECD0B1F5000FE7D162E0DBF845
:1038D000001001F0E061B1F1007F26D004DCB1B34B
:1038E000B1F1807FDAD160E0B1F1407FD8D0B1F1A1
:1038F000806FD3D14EE000E01BE0DAF8001001F455
:10390000E041B1F5005F10D008DC01B3B1F5805F94
:10391000C4D14AE035E058E065E088E0B1F5405FA9
:10392000BED0B1F5804FB9D134E020688000B5D564
:10393000A0E7DAF8001001F4E021B1F5403F6DD0C6
:1039400006DC61B149457BD07145A7D158E07BE0E9
:10395000B1F5802F66D0B1F5A02F9FD10DE000F01A
:103960006FFE7FE76846FFF7EBFD01987AE728E0F6
:1039700003A8FFF787FE049874E7216889038AD4B7
:103980008CE7DBF8001011F440310ED0494510D01F
:10399000714583D13168256801F040516D077FF58D
:1039A00074AF00297FF471AF69E720680001E7D5A3
:1039B0005BE720688000E3D503A8FFF763FE059866
:1039C00050E722689203DBD566E7306810F4803058
:1039D0003AD04845D4D120680001D1D56846FFF7D8
:1039E000AFFD02983EE7DBF8001001F0E041B1F1D5
:1039F000405F13D008DC71B1614521D04145BFD192
:103A000020688000B4D449E7B1F1804F0AD0B1F109
:103A1000A04FB2D042E7FFF7DDFC23E72068400764
:103A2000AED52CE72068C005AAD533E708E0DAF860
:103A3000001011F04051A0D0614505D041459FD103
:103A4000206800018ED429E72068800198D505E719
:103A5000504402580090D00340787D010080BB00A4
:103A6000004402582DE9FE4F0546DFF800A450F847
:103A7000081B0024FD4FC943019005F1280026468C
:103A80000AF1240A009008011DD4686E50B1B0F507
:103A9000801F0CD0B0F5001F0ED0B0F5401F1ED017
:103AA00001240FE0386840F40030386017E00198D6
:103AB000022102F057FC03E00098022102F0E2FC30
:103AC00004000CD026462888C043C00523D4A86D26
:103AD00005281ED2DFE800F00C11161B1B006A6ED1
:103AE000DAF8001021F440111143CAF80010EAE797
:103AF000386840F40030386009E00198002102F095
:103B000031FC03E00098002102F0BCFC0446C4B183
:103B100000E0012426462888DFF85083C04308F1DE
:103B20002C0840052FD4D5F8A400B0F5C00F28D03C
:103B300010DCB8B1B0F5001F19D0B0F5800F0FD16F
:103B40001AE0AA6DDAF8001021F007011143CAF853
:103B50000010E0E7B0F5000F13D0B0F5200F10D043
:103B600001240FE0386840F40030386009E0019823
:103B7000002102F0F7FB03E00098002102F082FC34
:103B8000044694B126462888C043000530D4D5F8B1
:103B9000A800B0F1407F29D011DCC0B1B0F1807F26
:103BA0001AD0B0F1007F10D11BE0D5F8A420D8F8CE
:103BB000001021F460011143C8F80010E3E7B0F1F0
:103BC000806F13D0B0F1A06F10D001240FE03868DF
:103BD00040F40030386009E00198002102F0C2FB97
:103BE00003E00098002102F04DFC044694B1264603
:103BF0002868DFF878B2C0430BF1200B80011FD496
:103C0000E86CD8B110280FD0202812D0302815D059
:103C1000012414E0D5F8A820D8F8001021F0E061C4
:103C20001143C8F80010E3E7386840F4003038600A
:103C300004E00198022102F095FB044674B1264687
:103C40002888C043C0042BD4E86DB0F5005F20D0B5
:103C50000DDCA0B1B0F5805F0FD115E0EA6CDBF8A8
:103C6000001021F030011143CBF80010E8E7B0F567
:103C7000405F13D0B0F5804F10D001240FE03868BA
:103C800040F40030386009E00198002102F06AFB3E
:103C900003E00098002102F0F5FB04468CB12646B3
:103CA0002888C043800429D4286EB0F5403F23D033
:103CB00010DC08B3B0F5803F14D0B0F5003F0FD151
:103CC00015E0EA6DDAF8001021F4E0411143CAF87A
:103CD0000010E5E7B0F5802F0ED0B0F5A02F0BD087
:103CE00001240AE00198012102F03CFB03E0009866
:103CF000012102F0C7FB044694B126462888C04340
:103D000040042AD4D5F8AC00B0F1405F23D010DCD9
:103D100008B3B0F1805F14D0B0F1005F0FD115E0AF
:103D20002A6EDAF8001021F4E0211143CAF80010DD
:103D3000E4E7B0F1804F0ED0B0F1A04F0BD00124DA
:103D40000AE00198012102F00DFB03E00098012137
:103D500002F098FB044674B126462888C04300044C
:103D60001FD4E86ED8B1B0F1805F0ED0B0F1005F23
:103D700010D0012414E0D5F8AC20D8F8001021F0C0
:103D8000E0411143C8F80010E7E7386840F400301C
:103D9000386004E00198012102F0E4FA044674B1AD
:103DA00026462868C043C0011ED4A86CD0B10128A3
:103DB0000ED0022811D0032814D0012413E0EA6E9B
:103DC000DAF8001021F040511143CAF80010E8E77A
:103DD000386840F40030386004E00198022102F0B5
:103DE000C1FA04466CB126462868C043400255D447
:103DF0001F48016841F480710160FFF7C9F98146ED
:103E00000EE0AA6CDBF8001021F003011143CBF89F
:103E10000010E9E7FFF7BCF9A0EB090064283BD8E4
:103E200013480068C005F5D5BCBBDFF84090B5F875
:103E3000B01009F14409D9F8000001F4407100F410
:103E40004070884211D0D9F80010D9F8002021F430
:103E5000407142F48032C9F80020D9F8002022F4E1
:103E60008032C9F80020C9F8001003E02C44025841
:103E700000480258D5F8B000B0F5807F19D1FFF79F
:103E800087F9029011E000BFFFF782F90299411A09
:103E900041F28830814208D9032426462878DFF889
:103EA0001494C043C00721D03CE0D9F8000080073B
:103EB000EAD5D5F8B010C1F301200328FE480DD093
:103EC000016821F47C510160B5F8B020D9F80010E8
:103ED000C2F30B021143C9F80010DFE7F74A036889
:103EE00002EA111223F47C511143ECE7A86F182861
:103EF00016D005DCA0B1082808D0102804D10AE0AB
:103F000020280DD028280BD001240AE00198012197
:103F100002F028FA03E00098012102F0B3FA044607
:103F200064B126462878C04380071ED4686F0628EF
:103F300019D2DFE800F0160C11161616AA6FD9F880
:103F4000001021F038011143C9F80010EAE7019888
:103F5000012102F007FA03E00098012102F092FA31
:103F600004467CB100E0012426462878C04340077F
:103F70001FD4D5F89000062819D2DFE800F0160CFF
:103F8000111616166A6FD9F8001021F007011143B7
:103F9000C9F80010E9E70198012102F0E3F903E014
:103FA0000098012102F06EFA0446A4B100E0012459
:103FB00026462878C04380062BD4D5F88C00B0F173
:103FC000405F24D011DC10B3B0F1805F15D0B0F1A8
:103FD000005F10D116E0D5F89020D8F8001021F03D
:103FE00007011143C8F80010E3E7B0F1804F0ED08D
:103FF000B0F1A04F0BD001240AE00198002102F09B
:10400000B1F903E00098022102F03CFA044694B1B1
:1040100026462878C04340062BD4D5F89800B0F542
:10402000406F24D011DC10B3B0F5806F15D0B0F51F
:10403000006F10D116E0D5F88C20D9F8001021F0CF
:10404000E0411143C9F80010E3E7B0F5805F0ED0FE
:10405000B0F5A05F0BD001240AE00198002102F026
:1040600081F903E00098022102F00CFA044694B1B1
:1040700026462878C04300062BD4D5F89C00B0F51E
:10408000C04F24D011DC10B3B0F5005F15D0B0F5EF
:10409000804F10D116E0D5F89820D8F8001021F400
:1040A000E0511143C8F80010E3E7B0F5004F0ED01F
:1040B000B0F5204F0BD001240AE00198002102F056
:1040C00051F903E00098022102F0DCF9044654B1F2
:1040D00026462878C04300071ED4D5F88000B0F5E6
:1040E000805F0AD00FE0D5F89C20D8F8001021F4AA
:1040F00060411143C8F80010EBE70098022102F07C
:10410000C1F900B10126D5F88020D9F8001021F4BA
:1041100040511143C9F800102878C043C00613D499
:10412000D5F89400B0F5807F05D10098022102F007
:10413000A9F900B10126D5F89420D8F8001021F48F
:1041400040711143C8F800102868C043000316D41A
:10415000D5F8A00038B1B0F5803F09D0B0F5003FE8
:104160000BD001240AE00198002102F0FBF803E0E3
:104170000098022102F086F904468CB12646286890
:10418000C043400322D4D5F88400B0F5801F11D07D
:10419000B0F5001F13D0B0F5401F15D0012414E076
:1041A000D5F8A020D8F8001021F440311143C8F808
:1041B0000010E4E7386840F40030386004E000980C
:1041C000012102F05FF904465CB126462868C0432D
:1041D000C0031CD4286D70B1B0F5803F10D001240D
:1041E00014E0D5F88420D9F8001021F440111143CF
:1041F000C9F80010EAE7386840F40030386004E09D
:104200000198022102F0AEF80446DCB12646286887
:10421000C043800005D40098022102F033F900B1B8
:1042200001262868C04380031BD4E86FB8B1B0F5FD
:10423000807F10D0B0F5007F11D0B0F5407F0ED058
:1042400001240DE02A6DDBF8001021F480311143C8
:10425000CBF80010DBE7386840F4003038607CB3FE
:1042600026462868C043C00207D42A6FDAF8001037
:1042700021F000411143CAF800102868C0438002B1
:1042800007D4AA6EDAF8001021F080711143CAF841
:1042900000102868C043400009D40748016821F491
:1042A000004101600168D5F8B4201143016028681D
:1042B000C04306E05444025810440258CFFFFF00A8
:1042C0001DE007D46A6DDBF8001021F04051114366
:1042D000CBF800102868C043000208D4D5F8882025
:1042E000D9F8001021F440011143C9F800102879D1
:1042F0000024C04300F00100204309D00EE0EA6F23
:10430000D9F8001021F440711143C9F80010A8E752
:104310000198002102F026F800B106462879C04332
:1043200000F00200204305D10198012102F01AF8A3
:1043300000B106462879C04300F00400204305D1AF
:104340000198022102F00EF800B106462879C04318
:1043500000F00800204305D10098002102F092F8F7
:1043600000B106462879C04300F01000204305D173
:104370000098012102F086F800B106462879C04372
:1043800000F02000044304D10098022102F07AF8E2
:1043900000B916B10120BDE8FE8F0020FBE7000048
:1043A0002DE9F05F04000F467ED0DFF83882D8F8A0
:1043B000000000F00F00B8420CD2D8F8001021F035
:1043C0000F013943C8F80010D8F8000000F00F00C2
:1043D000B84269D12078844D40070AD52069296800
:1043E00001F07001884204D9296821F0700101436D
:1043F000296020787C4E361D00070AD56069316837
:1044000001F07001884204D9316821F07001014344
:1044100031602078C0060AD5A069316801F4E061F6
:10442000884204D9316821F4E06101433160207889
:10443000DFF8B4B180060BF1080B0CD5E1695846E2
:10444000DBF8002002F07002914204D9026822F0E9
:1044500070020A430260207880070AD5E068296864
:1044600001F00F01884204D9296821F00F010143AE
:1044700029602078C0073ED05B49A26828681839B7
:1044800020F47060104328606068022818D0032868
:1044900019D00968012819D0490700294ADADFF83C
:1044A00048A1AAF1080A00E044E0DAF8002022F06E
:1044B00007020243CAF80020FEF76AFE814612E0B6
:1044C00009688903E9E709688901E6E7C905E4E7BE
:1044D000FEF75EFEA0EB090141F28830814202D96D
:1044E0000320BDE8F09F6168DAF8000000F03800B2
:1044F000B0EBC10FECD1207880070AD5E0682968BD
:1045000001F00F01884204D2296821F00F01014314
:104510002960D8F80010404601F00F01B9420BD9CC
:10452000016821F00F0139430160006800F00F00BD
:10453000B84201D00120D4E7207840070AD520698D
:10454000296801F07001884204D2296821F07001C5
:1045500001432960207800070AD56069316801F0BD
:104560007001884204D2316821F07001014331604A
:104570002078C0060AD5A069316801F4E06188425C
:1045800004D2316821F4E061014331602078800673
:104590000CD5E1695846DBF8002002F07002914228
:1045A00004D2026822F070020A43026000F06CF844
:1045B0000E492A682B68C2F3032203F00F038A5CBA
:1045C000C95C02F01F0201F01F01D040084A20FA26
:1045D00001F111600749086007480068BDE8F05F15
:1045E000FEF712BE00200052184402584C8000080A
:1045F000300000242C0000242400002430B500F0FA
:1046000043F80B4A0B490C4B15681468C5F3032299
:1046100004F00F048A5C095D02F01F0201F01F0123
:10462000D040064A20FA01F119601060084630BDFA
:10463000184402584C800008300000242C0000244C
:1046400000B5FFF7DBFF05490968054AC1F3021110
:10465000515C01F01F01C84000BD00001C4402581D
:104660004C80000800B5FFF7C9FF05490968054AF5
:10467000C1F30221515C01F01F01C84000BD0000E0
:104680001C4402584C800008454970B545480968EB
:10469000434B103B11F0380208D00111082A03D017
:1046A000102A0BD0182A0BD0084670BD196889064D
:1046B000FBD51968C1F3C101C84070BD3A4870BD4F
:1046C0003749374D18310C1D24350A6809682668AA
:1046D0002D6802F0030406F00102C1F30511C5F3D1
:1046E000CC0515FB02F200EE102AB8EE400AE9B341
:1046F0002F4ADFED2E0AB7EE001A6CB1DFED2D1A4E
:10470000012C01D0022C43D002EE101A1068F8EEF2
:10471000422A81EEA22A1EE01C68A40611D51B685D
:1047200001EE901A1168C3F3C103F8EE612AD84074
:1047300001EE900AC1F30800F8EE611A81EEA22A98
:104740000BE001EE901ADFED1C2A00BFF8EE611AB3
:10475000106882EEA12AC0F3080001EE900AF8EE7C
:10476000611A40EE201A31EE810A00E015E022EED7
:10477000000A1068C0F34620401C00EE900AF8EED4
:10478000600A80EE201ABCEEC10A10EE100A70BD5D
:1047900001EE901ADFED092AD8E7002070BD000075
:1047A000104402580090D00340787D010000003989
:1047B000304402580024744A0024744C20BCBE4B80
:1047C0002DE9F05F04007DD0FF4F2078FE4D1837B3
:1047D000DFF8F483103DC00748D0D8F800003968EE
:1047E00000F03800102815D0182803D101F003007C
:1047F00002280FD06068B0F5803F12D010B1B0F53C
:10480000A02F18D0286820F480302860286820F471
:10481000802009E02868800328D560680028D2D06D
:1048200024E0286840F480302860606888B1FEF792
:10483000AFFC064609E0286840F480202860F0E7D5
:10484000FEF7A6FC801B64287ED828688003F7D575
:104850000CE0FEF79DFC064605E000BFFEF798FC65
:10486000801B6428F0D828688003F7D4207880075C
:1048700056D5D8F80000DFF85093396810F03800AA
:10488000A9F10C090ED0182801D188070AD0E068D8
:10489000A8B3296821F0190101432960FEF778FCCB
:1048A000064628E02868400702D5E06800288AD03C
:1048B000E168286820F0190008432860FEF768FCCA
:1048C000064606E0D2E000BFFEF762FC801B02282D
:1048D000BAD828684007F7D5217CD9F8002022F003
:1048E000FE4242EA0161C9F8001019E0FEF750FCEF
:1048F000801B0228A8D828684007F7D5ECE7FFE717
:10490000286820F001002860FEF742FC064604E01B
:10491000FEF73EFC801B022896D828684007F7D493
:104920002078C00646D5D8F80000DFF89C92396898
:1049300000F03800A9F10409082812D0182805D180
:1049400001F00300012800E0CEE00AD0E069002871
:10495000286820D040F080002860FEF719FC064649
:1049600015E02868C00502D5E06980287ED194F85A
:104970002010D9F8002022F07C5242EA0161C9F8E7
:10498000001017E0FEF704FC801B0228A0D828685E
:10499000C005F7D5EBE720F080002860FEF7F8FBB4
:1049A000064604E0FEF7F4FB801B022890D8286836
:1049B000C005F7D42078000729D5834861696430A1
:1049C00000298146016811D041F001010160FEF724
:1049D000DFFB064605E000BFFEF7DAFB801B02287E
:1049E00088D8D9F800008007F6D510E021F0010141
:1049F0000160FEF7CDFB064605E000BFFEF7C8FBF1
:104A0000801B022870D8D9F800008007F6D42078DF
:104A1000800623D5A0690028286810D040F4805073
:104A20002860FEF7B5FB064605E000BFFEF7B0FBC9
:104A3000801B022858D828688004F7D50EE020F49F
:104A400080502860FEF7A4FB064604E0FEF7A0FBBA
:104A5000801B022848D828688004F7D420784007B3
:104A600051D5DFF86891D9F8001000E015E141F464
:104A70008071C9F80010FEF78BFB064605E000BF09
:104A8000FEF786FB801B64282ED8D9F80000C005ED
:104A9000F6D54D4EA068603601280AD008B1052829
:104AA00013D0306820F001003060306820F004003E
:104AB00002E0306840F001003060A06841F2883ABE
:104AC00098B1FEF765FB81460AE0306840F00400CB
:104AD0003060EEE7FEF75CFBA0EB0901514503D81F
:104AE00030688007F6D50EE072E0FEF751FB814694
:104AF00006E000BFFEF74CFBA0EB0901514567D86B
:104B000030688007F6D4606A00287CD0DFF8B8A04F
:104B1000D8F800100AF1200A4FF6F87B0AF10408D1
:104B2000C1F3C2010329AAF104096DD00228286843
:104B300020F08070286003D0FEF72AFB044681E055
:104B4000FEF726FB064604E0FEF722FB801B022848
:104B500075D828688001F7D4E26A40F2F3313868EA
:104B600054F8283F884340EA021018433860217BFC
:104B70004FF4FE0C22894FF0FE47208A4902267D21
:104B8000521E401EA1F5007189B2C2F30802114302
:104B9000761E0CEA00400143484607EA06621143CC
:104BA000CAF80010D9F8001021F00101C9F800106E
:104BB000D8F80030266A23EA0B0343EAC601C8F896
:104BC0000010D9F8001004E01044025800480258C0
:104BD00035E0A26921F00C011143C9F80010016809
:104BE000E26921F0020111430160016841F4803162
:104BF0000160016841F400310160016841F48021E5
:104C00000160016801E06CE020E041F00101016019
:104C1000286840F080702860FEF7BAFA044604E085
:104C2000FEF7B6FA001B022809D828688001F7D5DC
:104C300057E000BFFEF7ACFA001B022802D90320A0
:104C4000BDE8F09F28688001F4D44AE03968012863
:104C5000DAF8000021D0A26A01F0030393421CD1CC
:104C6000E26AC1F305118A4217D1216BC0F3080231
:104C7000491E8A4211D1616BC0F34622491E9142FE
:104C80000BD1A16BC0F30642491E914205D1E16BE5
:104C9000C0F30660491E814201D00120D0E7A16C1B
:104CA0004646D8F80000C0F3CC00814219D0D9F8AC
:104CB00000004D4620F00100C9F80000FEF768FA38
:104CC0004FEA0007FEF764FAB842FBD0A26C3068E6
:104CD00020EA0B0040EAC2003060286840F0010082
:104CE00028600020ACE7401EB0F1807F10B501D3F2
:104CF000012010BD4FF0E02460610F21601702F029
:104D00003BFF0020A0610721216110BDF0B590F8A4
:104D10003C20012A43D0012280F83C20D1E9024204
:104D2000204ECD6922F440722243D1E9004322F49F
:104D300080621A4322F400622243D1E9043422F44F
:104D400080521A430B6B22F4005222430C8B22F444
:104D500080421A43036822F4702242EA044200248B
:104D600022F08052B34242EA050202D00E4DAB421D
:104D700010D10F8D22F4700CD1E90862CD6A4CEA93
:104D8000075121F08071314321F00071114321F06E
:104D900000522A435A6480F83C400020F0BD0220B3
:104DA000F0BD00000000014000040140F0B590F8A3
:104DB0003C20012A41D0224E012480F83C400222AE
:104DC00080F83D2002681F4D5368B242D2F808C0F7
:104DD00001D0AA4203D14F6823F470033B430F680C
:104DE00023F070031F4357600268B24219D0B2F13A
:104DF000804F16D0144B9A4213D0144B9A4210D0C5
:104E0000134B9A420DD0AA420BD0124B9A4208D0B3
:104E1000114B9A4205D0114B9A4202D0104B9A4244
:104E200004D189682CF0800319439160002180F837
:104E30003D4080F83C100846F0BD0220F0BD000067
:104E40000000014000040140000400400008004050
:104E5000000C0040001800400040014000E000400D
:104E600000E4004010B5040003D094F83D0010B1F8
:104E700007E0012010BD002084F83C00204600F02F
:104E800023F8022084F83D002068211D01F0D2FCA7
:104E9000012084F8480084F83E0084F83F0084F83C
:104EA000400084F8410084F8420084F8430084F80C
:104EB000440084F8450084F8460084F8470084F8EC
:104EC0003D00002010BD000008B50068B0F1804F23
:104ED00008D10548016841F001010160006800F057
:104EE0000100009008BD0000E844025890F83D1011
:104EF000012901D001207047174B0222016880F878
:104F00003D2099421AD0B1F1804F17D01348814209
:104F100014D01348814211D0124881420ED0124859
:104F200081420BD01148814208D01148814205D0FE
:104F30001048814202D01048814207D188680F4A48
:104F40001040062806D0B0F5803F03D0086840F036
:104F5000010008600020704700000140000400408C
:104F600000080040000C0040000401400018004010
:104F70000040014000E0004000E400400700010064
:104F8000016841F211130A6A1A4207D10A6A9B109A
:104F90001A4203D10A6822F001020A60012180F856
:104FA0003D1000207047000070B5044690F83C00AA
:104FB0000025012814D03A4B012684F83C600220D9
:104FC00084F83D0022689068184020F47F4090608B
:104FD000086870282FD010DC10F00F0F03D022E0EB
:104FE0004FF0020070BD4FEA2012072A1BD2DFE803
:104FF00002F0535353534B394100B0F1101F4BD0C3
:1050000009DCB0F5805F0FD0B0F5005F1ED0B0F5C1
:10501000801F08D140E0A0F5801120393CD0102934
:105020003AD0202938D0012584F83D60002084F84A
:105030003C00284670BD4A682068D1E9021301F09F
:10504000EDFC2068816841F0770109E04A6820683A
:10505000D1E9021301F0E2FC2068816841F480414B
:105060008160E1E7CA684968206801F085FE206830
:10507000502106E0CA684968206801F08EFE206869
:10508000602101F0D5FCCFE7CA684968206801F0CB
:1050900073FE20684021F4E7226801461046F0E7DD
:1050A00088FFCEFF7047000010B586B0044614217B
:1050B0006846FBF75FF9184900202368174A8B42BE
:1050C0004FF0020112D1136843F01003136012680D
:1050D000012302F0100205924FF484420092CDE9C0
:1050E0000110CDE903030E48694611E00D4CA342BF
:1050F00010D1136843F001031360126803AB0091F1
:10510000CDE9011002F0010283E807000648694674
:10511000FDF726FF06B010BD00000140E044025834
:1051200000100258000C00400000025870B5044600
:1051300090F83C0000260D4601280BD0012084F891
:105140003C000C2A4AD007DC82B1042A20D0082A6D
:1051500006D131E0022070BD102A53D0142A63D04A
:105160000126002084F83C00304670BD206801F024
:1051700069FC2068816941F00801816120688169CA
:1051800021F00401816120682A698169114311E0DD
:10519000206801F0A9FC2068816941F40061816107
:1051A0002068816921F480618161206829698269B0
:1051B00042EA01218161D4E7206801F0E1FC206826
:1051C000C16941F00801C1612068C16921F0040191
:1051D000C16120682A69C169114311E0206801F0AA
:1051E0001BFD2068C16941F40061C1612068C1698B
:1051F00021F48061C16120682969C26942EA012104
:10520000C161AEE7206801F043FD2068416D41F0C7
:10521000080141652068416D21F004014165206865
:105220002A69416D114311E0206801F06BFD20688F
:10523000416D41F4006141652068416D21F4806158
:10524000416520682969426D42EA0121416588E78C
:1052500010B5040003D094F83D0010B107E0012020
:1052600010BD002084F83C00204600F023F8022006
:1052700084F83D002068211D01F0DCFA012084F84B
:10528000480084F83E0084F83F0084F8400084F829
:10529000410084F8420084F8430084F8440084F814
:1052A000450084F8460084F8470084F83D0000205B
:1052B00010BD0000F8B51B4905460068884209D1B9
:1052C0001948016841F001010160006800F0010027
:1052D0000090F8BD15498842FBD113480838016891
:1052E00041F00801016000684FF4804C104C3822F6
:1052F000104900F0080004F10C0E009000200E157B
:105300008F148EE8C110E061402320626062204665
:1053100084E80E00FDF7E6FA08B1FBF7B6FCAC62D4
:10532000A563F8BD00000140F0440258000C0040A5
:10533000FC010024100002407047704730B504465D
:105340004FF0020269B1042912D0082917D00C29A4
:105350001CD0102921D094F84300012824D001202A
:1053600030BD94F83E000128F9D184F83E201DE0BC
:1053700094F83F000128F2D184F83F2016E094F819
:1053800040000128EBD184F840200FE094F8410060
:105390000128E4D184F8412008E094F84200012873
:1053A000DDD184F8422001E084F843200122206806
:1053B00001F0B2FA1E4920681E4A1F4B884209D0EC
:1053C000904207D0984205D01C4DA84202D01C4DF7
:1053D000A84203D1456C45F40045456420688842E5
:1053E00018D0B0F1804F15D01649884212D0164916
:1053F00088420FD0154988420CD090420AD01449F7
:10540000884207D0984205D01249884202D01249FA
:10541000884207D18168114A1140062906D0B1F5AA
:10542000803F03D0016841F001010160002030BDE0
:1054300000000140000401400040014000440140E0
:10544000004801400004004000080040000C0040FB
:105450000018004000E0004000E4004007000100A8
:105460002DE9F0410D00174604464FF0000610D01C
:10547000042D15D0082D1AD00C2D1FD0102D24D09E
:1054800094F84300022827D094F84300012826D03E
:105490007DE094F83E0002281ED094F83E00F5E727
:1054A00094F83F00022817D094F83F00EEE794F8F4
:1054B0004000022810D094F84000E7E794F841003B
:1054C000022809D094F84100E0E794F8420002284D
:1054D00002D094F84200D9E70220BDE8F081A7B3DA
:1054E0009BB359494FF00200584ADFF864C155B1E7
:1054F000042D19D0082D29D00C2D38D0102D48D0CE
:1055000084F8430047E084F83E00606AC16339468E
:10551000606A0264606AC0F84CC02268606A343213
:10552000FDF7BEFB88B938E084F83F00A06AC1638C
:105530003946A06A0264A06AC0F84CC02268A06A1A
:105540003832FDF7ADFB00B92CE020E084F84000D4
:10555000E06AC1633946E06A0264E06AC0F84CC0A0
:105560002268E06A3C32FDF79BFB80B91FE084F8BB
:105570004100206BC1633946206B0264206BC0F888
:105580004CC02268206B4032FDF78AFBA0B101209D
:10559000A3E784F84200012654E02068C16841F482
:1055A00000710DE02068C16841F4806108E0206866
:1055B000C16841F4006103E02068C16841F4805192
:1055C000C16020680122294601F0A6F9214920681E
:1055D000214A224B884209D0904207D0984205D0F8
:1055E0001F4DA84202D01F4DA84203D1456C45F47F
:1055F000004545642068884218D0B0F1804F15D02E
:105600001949884212D0194988420FD01849884256
:105610000CD090420AD01749884207D0984205D052
:105620001549884202D01549884207D18168144A39
:105630001140062906D0B1F5803F03D0016841F042
:1056400001010160304648E73369000891690008AC
:10565000C969000800000140000401400040014009
:1056600000440140004801400004004000080040A0
:10567000000C00400018004000E0004000E4004042
:105680000700010030B590F88410012918D00122DC
:1056900080F884202421C0F888100022202401688A
:1056A0000B680D6823F0005325F001050D6042667C
:1056B00001680B60C0F8884080F88420104630BD37
:1056C000022030BD7047704770B5044690F88400E2
:1056D00001281DD0012284F884202420C4F88800E9
:1056E00020680568026822F0010202602068826872
:1056F00022F060620A438260204601F061FB22686A
:10570000202100201560C4F8881084F8840070BD42
:10571000022070BD70B5044690F8840001281DD0A9
:10572000012284F884202420C4F8880020680568B9
:10573000026822F0010202602068826822F0604262
:105740000A438260204601F03BFB226820210020B2
:105750001560C4F8881084F8840070BD022070BD04
:1057600070477047704700002DE9F0410768002539
:10577000044640F60F030226F8693968BA681842F1
:105780000AD183067ED501F0200302F0805C53EA43
:105790000C0377D0616F74E1CF4BDFF840C3134047
:1057A00001EA0C0C53EA0C0C6CD05FEAC07C0CD004
:1057B0005FEAC15C09D54FF0010CC7F820C0D4F8EE
:1057C000907047F00107C4F89070870709D5D70794
:1057D00007D027683E62D4F8906046F00406C4F80B
:1057E000906046070AD5D60708D0276804263E628F
:1057F000D4F8906046F00206C4F8906006070CD515
:1058000001F020061E4308D0266808233362D4F82E
:10581000903043F00803C4F8903003050BD54B01DA
:1058200009D526684FF400633362D4F8903043F012
:105830002003C4F89030D4F89030002B3DD080067F
:1058400009D501F0200002F08051084303D0616FB8
:1058500009B1204688472168D4F890008968490634
:1058600002D410F0280F2AD0204601F08FFB2068C8
:10587000806840061ED52068083050E8001F21F0DF
:10588000400100E021E040E80012002AF3D1D4F802
:10589000800078B192490165D4F88000FCF76CFB78
:1058A00000280AD0D4F88000016D00E02046BDE851
:1058B000F04108472046FFF755FFBDE8F08120463C
:1058C000FFF750FFC4F89050F7E7D4F86CC02023DE
:1058D000BCF1010F7ED15FEAC06C7BD55FEAC16C81
:1058E00078D51020386220688068400673D5D4F8D7
:1058F00080107C4A0868904234D07A4A183290422C
:1059000030D0784A303290422CD0764A4832904299
:1059100028D0744A6032904224D0724A7832904241
:1059200020D0704A903290421CD06E4AA8329042E9
:1059300018D06D4A904215D06B4A1832904211D05F
:10594000694A303290420DD0674A4832904209D0BD
:10595000654A6032904205D0634A7832904201D065
:10596000614A903240680004000CA6D0B4F85C2074
:105970008242A2D9A4F85E00C869B0F5807F2FD01A
:10598000216851E8000F20F4807041E80002002AED
:10599000F6D12068083050E8001F21F0010140E8EE
:1059A0000012002AF5D12068083050E8001F21F0CD
:1059B000400140E80012002AF5D1C4F88C30E566B9
:1059C000216851E8000F20F0100041E80002002A91
:1059D000F6D101E040E00BE0D4F88000FCF71CF9C0
:1059E0002667B4F85C00B4F85E10401A81B22FE06C
:1059F000B4F85C00B4F85E10B4F85E20401A81B2CE
:105A0000002AB2D00029B0D0226852E8000F20F45A
:105A1000907042E80007002FF6D1344F206800F163
:105A2000080050E8002F02EA070240E8002CBCF111
:105A3000000FF3D1C4F88C30E5666567206850E844
:105A4000002F22F0100240E80023002BF6D1266739
:105A50002046FFF737FE30E7C60209D5560207D5C4
:105A60004FF4801038622046BDE8F041FFF779BE60
:105A700006060AD501F0800602F40002164304D09F
:105A8000A16F00297FF412AF17E7420611D54A062D
:105A90000FD52046026852E8001F21F0400142E87D
:105AA0000014002CF6D1C0F88830856700F091F919
:105AB00003E7020206D54A0004D52046BDE8F041BE
:105AC000FFF74EBEC001C6D50029C4DA2046BDE8A6
:105AD000F041FFF7F8BD00000100001020010004B4
